{
  "contractName": "SacNFT",
  "abi": [
    {
      "inputs": [],
      "stateMutability": "nonpayable",
      "type": "constructor"
    },
    {
      "anonymous": false,
      "inputs": [
        {
          "indexed": true,
          "internalType": "address",
          "name": "owner",
          "type": "address"
        },
        {
          "indexed": true,
          "internalType": "address",
          "name": "approved",
          "type": "address"
        },
        {
          "indexed": true,
          "internalType": "uint256",
          "name": "tokenId",
          "type": "uint256"
        }
      ],
      "name": "Approval",
      "type": "event"
    },
    {
      "anonymous": false,
      "inputs": [
        {
          "indexed": true,
          "internalType": "address",
          "name": "owner",
          "type": "address"
        },
        {
          "indexed": true,
          "internalType": "address",
          "name": "operator",
          "type": "address"
        },
        {
          "indexed": false,
          "internalType": "bool",
          "name": "approved",
          "type": "bool"
        }
      ],
      "name": "ApprovalForAll",
      "type": "event"
    },
    {
      "anonymous": false,
      "inputs": [
        {
          "indexed": true,
          "internalType": "address",
          "name": "from",
          "type": "address"
        },
        {
          "indexed": true,
          "internalType": "address",
          "name": "to",
          "type": "address"
        },
        {
          "indexed": true,
          "internalType": "uint256",
          "name": "tokenId",
          "type": "uint256"
        }
      ],
      "name": "Transfer",
      "type": "event"
    },
    {
      "inputs": [
        {
          "internalType": "address",
          "name": "to",
          "type": "address"
        },
        {
          "internalType": "uint256",
          "name": "tokenId",
          "type": "uint256"
        }
      ],
      "name": "approve",
      "outputs": [],
      "stateMutability": "nonpayable",
      "type": "function"
    },
    {
      "inputs": [
        {
          "internalType": "address",
          "name": "owner",
          "type": "address"
        }
      ],
      "name": "balanceOf",
      "outputs": [
        {
          "internalType": "uint256",
          "name": "",
          "type": "uint256"
        }
      ],
      "stateMutability": "view",
      "type": "function",
      "constant": true
    },
    {
      "inputs": [
        {
          "internalType": "uint256",
          "name": "tokenId",
          "type": "uint256"
        }
      ],
      "name": "getApproved",
      "outputs": [
        {
          "internalType": "address",
          "name": "",
          "type": "address"
        }
      ],
      "stateMutability": "view",
      "type": "function",
      "constant": true
    },
    {
      "inputs": [
        {
          "internalType": "address",
          "name": "owner",
          "type": "address"
        },
        {
          "internalType": "address",
          "name": "operator",
          "type": "address"
        }
      ],
      "name": "isApprovedForAll",
      "outputs": [
        {
          "internalType": "bool",
          "name": "",
          "type": "bool"
        }
      ],
      "stateMutability": "view",
      "type": "function",
      "constant": true
    },
    {
      "inputs": [
        {
          "internalType": "address",
          "name": "",
          "type": "address"
        }
      ],
      "name": "minters",
      "outputs": [
        {
          "internalType": "bool",
          "name": "",
          "type": "bool"
        }
      ],
      "stateMutability": "view",
      "type": "function",
      "constant": true
    },
    {
      "inputs": [],
      "name": "name",
      "outputs": [
        {
          "internalType": "string",
          "name": "",
          "type": "string"
        }
      ],
      "stateMutability": "view",
      "type": "function",
      "constant": true
    },
    {
      "inputs": [
        {
          "internalType": "uint256",
          "name": "tokenId",
          "type": "uint256"
        }
      ],
      "name": "ownerOf",
      "outputs": [
        {
          "internalType": "address",
          "name": "",
          "type": "address"
        }
      ],
      "stateMutability": "view",
      "type": "function",
      "constant": true
    },
    {
      "inputs": [
        {
          "internalType": "uint256",
          "name": "",
          "type": "uint256"
        }
      ],
      "name": "sacs",
      "outputs": [
        {
          "internalType": "string",
          "name": "modele",
          "type": "string"
        },
        {
          "internalType": "string",
          "name": "couleur",
          "type": "string"
        },
        {
          "internalType": "uint256",
          "name": "taille",
          "type": "uint256"
        },
        {
          "internalType": "string",
          "name": "numeroserie",
          "type": "string"
        }
      ],
      "stateMutability": "view",
      "type": "function",
      "constant": true
    },
    {
      "inputs": [
        {
          "internalType": "address",
          "name": "from",
          "type": "address"
        },
        {
          "internalType": "address",
          "name": "to",
          "type": "address"
        },
        {
          "internalType": "uint256",
          "name": "tokenId",
          "type": "uint256"
        }
      ],
      "name": "safeTransferFrom",
      "outputs": [],
      "stateMutability": "nonpayable",
      "type": "function"
    },
    {
      "inputs": [
        {
          "internalType": "address",
          "name": "from",
          "type": "address"
        },
        {
          "internalType": "address",
          "name": "to",
          "type": "address"
        },
        {
          "internalType": "uint256",
          "name": "tokenId",
          "type": "uint256"
        },
        {
          "internalType": "bytes",
          "name": "data",
          "type": "bytes"
        }
      ],
      "name": "safeTransferFrom",
      "outputs": [],
      "stateMutability": "nonpayable",
      "type": "function"
    },
    {
      "inputs": [
        {
          "internalType": "address",
          "name": "operator",
          "type": "address"
        },
        {
          "internalType": "bool",
          "name": "approved",
          "type": "bool"
        }
      ],
      "name": "setApprovalForAll",
      "outputs": [],
      "stateMutability": "nonpayable",
      "type": "function"
    },
    {
      "inputs": [
        {
          "internalType": "bytes4",
          "name": "interfaceId",
          "type": "bytes4"
        }
      ],
      "name": "supportsInterface",
      "outputs": [
        {
          "internalType": "bool",
          "name": "",
          "type": "bool"
        }
      ],
      "stateMutability": "view",
      "type": "function",
      "constant": true
    },
    {
      "inputs": [],
      "name": "symbol",
      "outputs": [
        {
          "internalType": "string",
          "name": "",
          "type": "string"
        }
      ],
      "stateMutability": "view",
      "type": "function",
      "constant": true
    },
    {
      "inputs": [
        {
          "internalType": "uint256",
          "name": "tokenId",
          "type": "uint256"
        }
      ],
      "name": "tokenURI",
      "outputs": [
        {
          "internalType": "string",
          "name": "",
          "type": "string"
        }
      ],
      "stateMutability": "view",
      "type": "function",
      "constant": true
    },
    {
      "inputs": [
        {
          "internalType": "address",
          "name": "from",
          "type": "address"
        },
        {
          "internalType": "address",
          "name": "to",
          "type": "address"
        },
        {
          "internalType": "uint256",
          "name": "tokenId",
          "type": "uint256"
        }
      ],
      "name": "transferFrom",
      "outputs": [],
      "stateMutability": "nonpayable",
      "type": "function"
    },
    {
      "inputs": [
        {
          "internalType": "address",
          "name": "minter",
          "type": "address"
        }
      ],
      "name": "registerMinter",
      "outputs": [],
      "stateMutability": "nonpayable",
      "type": "function"
    },
    {
      "inputs": [
        {
          "internalType": "address",
          "name": "minter",
          "type": "address"
        },
        {
          "internalType": "string",
          "name": "modele",
          "type": "string"
        },
        {
          "internalType": "string",
          "name": "couleur",
          "type": "string"
        },
        {
          "internalType": "uint256",
          "name": "taille",
          "type": "uint256"
        },
        {
          "internalType": "string",
          "name": "numeroserie",
          "type": "string"
        }
      ],
      "name": "generateSac",
      "outputs": [
        {
          "internalType": "uint256",
          "name": "",
          "type": "uint256"
        }
      ],
      "stateMutability": "nonpayable",
      "type": "function"
    },
    {
      "inputs": [
        {
          "internalType": "uint256",
          "name": "tokenId",
          "type": "uint256"
        }
      ],
      "name": "destroySac",
      "outputs": [],
      "stateMutability": "nonpayable",
      "type": "function"
    }
  ],
  "bytecode": "0x608060405260006007553480156200001657600080fd5b506040518060400160405280600681526020017f5361634e465400000000000000000000000000000000000000000000000000008152506040518060400160405280600481526020017f534e46540000000000000000000000000000000000000000000000000000000081525081600090816200009491906200036a565b508060019081620000a691906200036a565b50505033600a60006101000a81548173ffffffffffffffffffffffffffffffffffffffff021916908373ffffffffffffffffffffffffffffffffffffffff16021790555062000451565b600081519050919050565b7f4e487b7100000000000000000000000000000000000000000000000000000000600052604160045260246000fd5b7f4e487b7100000000000000000000000000000000000000000000000000000000600052602260045260246000fd5b600060028204905060018216806200017257607f821691505b6020821081036200018857620001876200012a565b5b50919050565b60008190508160005260206000209050919050565b60006020601f8301049050919050565b600082821b905092915050565b600060088302620001f27fffffffffffffffffffffffffffffffffffffffffffffffffffffffffffffffff82620001b3565b620001fe8683620001b3565b95508019841693508086168417925050509392505050565b6000819050919050565b6000819050919050565b60006200024b620002456200023f8462000216565b62000220565b62000216565b9050919050565b6000819050919050565b62000267836200022a565b6200027f620002768262000252565b848454620001c0565b825550505050565b600090565b6200029662000287565b620002a38184846200025c565b505050565b5b81811015620002cb57620002bf6000826200028c565b600181019050620002a9565b5050565b601f8211156200031a57620002e4816200018e565b620002ef84620001a3565b81016020851015620002ff578190505b620003176200030e85620001a3565b830182620002a8565b50505b505050565b600082821c905092915050565b60006200033f600019846008026200031f565b1980831691505092915050565b60006200035a83836200032c565b9150826002028217905092915050565b6200037582620000f0565b67ffffffffffffffff811115620003915762000390620000fb565b5b6200039d825462000159565b620003aa828285620002cf565b600060209050601f831160018114620003e25760008415620003cd578287015190505b620003d985826200034c565b86555062000449565b601f198416620003f2866200018e565b60005b828110156200041c57848901518255600182019150602085019450602081019050620003f5565b868310156200043c578489015162000438601f8916826200032c565b8355505b6001600288020188555050505b505050505050565b6131e180620004616000396000f3fe608060405234801561001057600080fd5b50600436106101165760003560e01c806395d89b41116100a2578063c87b56dd11610071578063c87b56dd146102ef578063e985e9c51461031f578063ef98865c1461034f578063f46eccc41461036b578063fd647f641461039b57610116565b806395d89b4114610269578063a022f19714610287578063a22cb465146102b7578063b88d4fde146102d357610116565b806323b872dd116100e957806323b872dd146101b557806342842e0e146101d157806347230dcb146101ed5780636352211e1461020957806370a082311461023957610116565b806301ffc9a71461011b57806306fdde031461014b578063081812fc14610169578063095ea7b314610199575b600080fd5b61013560048036038101906101309190611e0a565b6103ce565b6040516101429190611e52565b60405180910390f35b6101536104b0565b6040516101609190611f06565b60405180910390f35b610183600480360381019061017e9190611f5e565b610542565b6040516101909190611fcc565b60405180910390f35b6101b360048036038101906101ae9190612013565b610588565b005b6101cf60048036038101906101ca9190612053565b61069f565b005b6101eb60048036038101906101e69190612053565b6106ff565b005b610207600480360381019061020291906120a6565b61071f565b005b610223600480360381019061021e9190611f5e565b6107d4565b6040516102309190611fcc565b60405180910390f35b610253600480360381019061024e91906120a6565b610885565b60405161026091906120e2565b60405180910390f35b61027161093c565b60405161027e9190611f06565b60405180910390f35b6102a1600480360381019061029c9190612232565b6109ce565b6040516102ae91906120e2565b60405180910390f35b6102d160048036038101906102cc919061232d565b610b01565b005b6102ed60048036038101906102e8919061240e565b610b17565b005b61030960048036038101906103049190611f5e565b610b79565b6040516103169190611f06565b60405180910390f35b61033960048036038101906103349190612491565b610c8b565b6040516103469190611e52565b60405180910390f35b61036960048036038101906103649190611f5e565b610d1f565b005b610385600480360381019061038091906120a6565b610d6b565b6040516103929190611e52565b60405180910390f35b6103b560048036038101906103b09190611f5e565b610d8b565b6040516103c594939291906124d1565b60405180910390f35b60007f80ac58cd000000000000000000000000000000000000000000000000000000007bffffffffffffffffffffffffffffffffffffffffffffffffffffffff1916827bffffffffffffffffffffffffffffffffffffffffffffffffffffffff1916148061049957507f5b5e139f000000000000000000000000000000000000000000000000000000007bffffffffffffffffffffffffffffffffffffffffffffffffffffffff1916827bffffffffffffffffffffffffffffffffffffffffffffffffffffffff1916145b806104a957506104a882610f53565b5b9050919050565b6060600080546104bf9061255a565b80601f01602080910402602001604051908101604052809291908181526020018280546104eb9061255a565b80156105385780601f1061050d57610100808354040283529160200191610538565b820191906000526020600020905b81548152906001019060200180831161051b57829003601f168201915b5050505050905090565b600061054d82610fbd565b6004600083815260200190815260200160002060009054906101000a900473ffffffffffffffffffffffffffffffffffffffff169050919050565b6000610593826107d4565b90508073ffffffffffffffffffffffffffffffffffffffff168373ffffffffffffffffffffffffffffffffffffffff1603610603576040517f08c379a00000000000000000000000000000000000000000000000000000000081526004016105fa906125fd565b60405180910390fd5b8073ffffffffffffffffffffffffffffffffffffffff16610622611008565b73ffffffffffffffffffffffffffffffffffffffff16148061065157506106508161064b611008565b610c8b565b5b610690576040517f08c379a00000000000000000000000000000000000000000000000000000000081526004016106879061268f565b60405180910390fd5b61069a8383611010565b505050565b6106b06106aa611008565b826110c9565b6106ef576040517f08c379a00000000000000000000000000000000000000000000000000000000081526004016106e690612721565b60405180910390fd5b6106fa83838361115e565b505050565b61071a83838360405180602001604052806000815250610b17565b505050565b600a60009054906101000a900473ffffffffffffffffffffffffffffffffffffffff1673ffffffffffffffffffffffffffffffffffffffff163373ffffffffffffffffffffffffffffffffffffffff161461077957600080fd5b6001600860008373ffffffffffffffffffffffffffffffffffffffff1673ffffffffffffffffffffffffffffffffffffffff16815260200190815260200160002060006101000a81548160ff02191690831515021790555050565b6000806002600084815260200190815260200160002060009054906101000a900473ffffffffffffffffffffffffffffffffffffffff169050600073ffffffffffffffffffffffffffffffffffffffff168173ffffffffffffffffffffffffffffffffffffffff160361087c576040517f08c379a00000000000000000000000000000000000000000000000000000000081526004016108739061278d565b60405180910390fd5b80915050919050565b60008073ffffffffffffffffffffffffffffffffffffffff168273ffffffffffffffffffffffffffffffffffffffff16036108f5576040517f08c379a00000000000000000000000000000000000000000000000000000000081526004016108ec9061281f565b60405180910390fd5b600360008373ffffffffffffffffffffffffffffffffffffffff1673ffffffffffffffffffffffffffffffffffffffff168152602001908152602001600020549050919050565b60606001805461094b9061255a565b80601f01602080910402602001604051908101604052809291908181526020018280546109779061255a565b80156109c45780601f10610999576101008083540402835291602001916109c4565b820191906000526020600020905b8154815290600101906020018083116109a757829003601f168201915b5050505050905090565b6000600860003373ffffffffffffffffffffffffffffffffffffffff1673ffffffffffffffffffffffffffffffffffffffff16815260200190815260200160002060009054906101000a900460ff16610a2657600080fd5b60076000815480929190610a399061286e565b919050555060006007549050610a4f87826113c4565b604051806080016040528087815260200186815260200185815260200184815250600960008381526020019081526020016000206000820151816000019081610a989190612a62565b506020820151816001019081610aae9190612a62565b50604082015181600201556060820151816003019081610ace9190612a62565b50905050610af4816040518060800160405280605e815260200161314e605e913961159d565b8091505095945050505050565b610b13610b0c611008565b838361160a565b5050565b610b28610b22611008565b836110c9565b610b67576040517f08c379a0000000000000000000000000000000000000000000000000000000008152600401610b5e90612721565b60405180910390fd5b610b7384848484611776565b50505050565b6060610b8482610fbd565b6000600660008481526020019081526020016000208054610ba49061255a565b80601f0160208091040260200160405190810160405280929190818152602001828054610bd09061255a565b8015610c1d5780601f10610bf257610100808354040283529160200191610c1d565b820191906000526020600020905b815481529060010190602001808311610c0057829003601f168201915b505050505090506000610c2e6117d2565b90506000815103610c43578192505050610c86565b600082511115610c78578082604051602001610c60929190612b70565b60405160208183030381529060405292505050610c86565b610c81846117e9565b925050505b919050565b6000600560008473ffffffffffffffffffffffffffffffffffffffff1673ffffffffffffffffffffffffffffffffffffffff16815260200190815260200160002060008373ffffffffffffffffffffffffffffffffffffffff1673ffffffffffffffffffffffffffffffffffffffff16815260200190815260200160002060009054906101000a900460ff16905092915050565b610d28816107d4565b73ffffffffffffffffffffffffffffffffffffffff163373ffffffffffffffffffffffffffffffffffffffff1614610d5f57600080fd5b610d6881611851565b50565b60086020528060005260406000206000915054906101000a900460ff1681565b6009602052806000526040600020600091509050806000018054610dae9061255a565b80601f0160208091040260200160405190810160405280929190818152602001828054610dda9061255a565b8015610e275780601f10610dfc57610100808354040283529160200191610e27565b820191906000526020600020905b815481529060010190602001808311610e0a57829003601f168201915b505050505090806001018054610e3c9061255a565b80601f0160208091040260200160405190810160405280929190818152602001828054610e689061255a565b8015610eb55780601f10610e8a57610100808354040283529160200191610eb5565b820191906000526020600020905b815481529060010190602001808311610e9857829003601f168201915b505050505090806002015490806003018054610ed09061255a565b80601f0160208091040260200160405190810160405280929190818152602001828054610efc9061255a565b8015610f495780601f10610f1e57610100808354040283529160200191610f49565b820191906000526020600020905b815481529060010190602001808311610f2c57829003601f168201915b5050505050905084565b60007f01ffc9a7000000000000000000000000000000000000000000000000000000007bffffffffffffffffffffffffffffffffffffffffffffffffffffffff1916827bffffffffffffffffffffffffffffffffffffffffffffffffffffffff1916149050919050565b610fc6816118a4565b611005576040517f08c379a0000000000000000000000000000000000000000000000000000000008152600401610ffc9061278d565b60405180910390fd5b50565b600033905090565b816004600083815260200190815260200160002060006101000a81548173ffffffffffffffffffffffffffffffffffffffff021916908373ffffffffffffffffffffffffffffffffffffffff160217905550808273ffffffffffffffffffffffffffffffffffffffff16611083836107d4565b73ffffffffffffffffffffffffffffffffffffffff167f8c5be1e5ebec7d5bd14f71427d1e84f3dd0314c0f7b2291e5b200ac8c7c3b92560405160405180910390a45050565b6000806110d5836107d4565b90508073ffffffffffffffffffffffffffffffffffffffff168473ffffffffffffffffffffffffffffffffffffffff16148061111757506111168185610c8b565b5b8061115557508373ffffffffffffffffffffffffffffffffffffffff1661113d84610542565b73ffffffffffffffffffffffffffffffffffffffff16145b91505092915050565b8273ffffffffffffffffffffffffffffffffffffffff1661117e826107d4565b73ffffffffffffffffffffffffffffffffffffffff16146111d4576040517f08c379a00000000000000000000000000000000000000000000000000000000081526004016111cb90612c06565b60405180910390fd5b600073ffffffffffffffffffffffffffffffffffffffff168273ffffffffffffffffffffffffffffffffffffffff1603611243576040517f08c379a000000000000000000000000000000000000000000000000000000000815260040161123a90612c98565b60405180910390fd5b61124e838383611910565b611259600082611010565b6001600360008573ffffffffffffffffffffffffffffffffffffffff1673ffffffffffffffffffffffffffffffffffffffff16815260200190815260200160002060008282546112a99190612cb8565b925050819055506001600360008473ffffffffffffffffffffffffffffffffffffffff1673ffffffffffffffffffffffffffffffffffffffff16815260200190815260200160002060008282546113009190612cec565b92505081905550816002600083815260200190815260200160002060006101000a81548173ffffffffffffffffffffffffffffffffffffffff021916908373ffffffffffffffffffffffffffffffffffffffff160217905550808273ffffffffffffffffffffffffffffffffffffffff168473ffffffffffffffffffffffffffffffffffffffff167fddf252ad1be2c89b69c2b068fc378daa952ba7f163c4a11628f55a4df523b3ef60405160405180910390a46113bf838383611915565b505050565b600073ffffffffffffffffffffffffffffffffffffffff168273ffffffffffffffffffffffffffffffffffffffff1603611433576040517f08c379a000000000000000000000000000000000000000000000000000000000815260040161142a90612d8e565b60405180910390fd5b61143c816118a4565b1561147c576040517f08c379a000000000000000000000000000000000000000000000000000000000815260040161147390612dfa565b60405180910390fd5b61148860008383611910565b6001600360008473ffffffffffffffffffffffffffffffffffffffff1673ffffffffffffffffffffffffffffffffffffffff16815260200190815260200160002060008282546114d89190612cec565b92505081905550816002600083815260200190815260200160002060006101000a81548173ffffffffffffffffffffffffffffffffffffffff021916908373ffffffffffffffffffffffffffffffffffffffff160217905550808273ffffffffffffffffffffffffffffffffffffffff16600073ffffffffffffffffffffffffffffffffffffffff167fddf252ad1be2c89b69c2b068fc378daa952ba7f163c4a11628f55a4df523b3ef60405160405180910390a461159960008383611915565b5050565b6115a6826118a4565b6115e5576040517f08c379a00000000000000000000000000000000000000000000000000000000081526004016115dc90612e8c565b60405180910390fd5b806006600084815260200190815260200160002090816116059190612a62565b505050565b8173ffffffffffffffffffffffffffffffffffffffff168373ffffffffffffffffffffffffffffffffffffffff1603611678576040517f08c379a000000000000000000000000000000000000000000000000000000000815260040161166f90612ef8565b60405180910390fd5b80600560008573ffffffffffffffffffffffffffffffffffffffff1673ffffffffffffffffffffffffffffffffffffffff16815260200190815260200160002060008473ffffffffffffffffffffffffffffffffffffffff1673ffffffffffffffffffffffffffffffffffffffff16815260200190815260200160002060006101000a81548160ff0219169083151502179055508173ffffffffffffffffffffffffffffffffffffffff168373ffffffffffffffffffffffffffffffffffffffff167f17307eab39ab6107e8899845ad3d59bd9653f200f220920489ca2b5937696c31836040516117699190611e52565b60405180910390a3505050565b61178184848461115e565b61178d8484848461191a565b6117cc576040517f08c379a00000000000000000000000000000000000000000000000000000000081526004016117c390612f8a565b60405180910390fd5b50505050565b606060405180602001604052806000815250905090565b60606117f482610fbd565b60006117fe6117d2565b9050600081511161181e5760405180602001604052806000815250611849565b8061182884611aa1565b604051602001611839929190612b70565b6040516020818303038152906040525b915050919050565b61185a81611c01565b600060066000838152602001908152602001600020805461187a9061255a565b9050146118a1576006600082815260200190815260200160002060006118a09190611d41565b5b50565b60008073ffffffffffffffffffffffffffffffffffffffff166002600084815260200190815260200160002060009054906101000a900473ffffffffffffffffffffffffffffffffffffffff1673ffffffffffffffffffffffffffffffffffffffff1614159050919050565b505050565b505050565b600061193b8473ffffffffffffffffffffffffffffffffffffffff16611d1e565b15611a94578373ffffffffffffffffffffffffffffffffffffffff1663150b7a02611964611008565b8786866040518563ffffffff1660e01b81526004016119869493929190612fff565b6020604051808303816000875af19250505080156119c257506040513d601f19601f820116820180604052508101906119bf9190613060565b60015b611a44573d80600081146119f2576040519150601f19603f3d011682016040523d82523d6000602084013e6119f7565b606091505b506000815103611a3c576040517f08c379a0000000000000000000000000000000000000000000000000000000008152600401611a3390612f8a565b60405180910390fd5b805181602001fd5b63150b7a0260e01b7bffffffffffffffffffffffffffffffffffffffffffffffffffffffff1916817bffffffffffffffffffffffffffffffffffffffffffffffffffffffff191614915050611a99565b600190505b949350505050565b606060008203611ae8576040518060400160405280600181526020017f30000000000000000000000000000000000000000000000000000000000000008152509050611bfc565b600082905060005b60008214611b1a578080611b039061286e565b915050600a82611b1391906130bc565b9150611af0565b60008167ffffffffffffffff811115611b3657611b35612107565b5b6040519080825280601f01601f191660200182016040528015611b685781602001600182028036833780820191505090505b5090505b60008514611bf557600182611b819190612cb8565b9150600a85611b9091906130ed565b6030611b9c9190612cec565b60f81b818381518110611bb257611bb161311e565b5b60200101907effffffffffffffffffffffffffffffffffffffffffffffffffffffffffffff1916908160001a905350600a85611bee91906130bc565b9450611b6c565b8093505050505b919050565b6000611c0c826107d4565b9050611c1a81600084611910565b611c25600083611010565b6001600360008373ffffffffffffffffffffffffffffffffffffffff1673ffffffffffffffffffffffffffffffffffffffff1681526020019081526020016000206000828254611c759190612cb8565b925050819055506002600083815260200190815260200160002060006101000a81549073ffffffffffffffffffffffffffffffffffffffff021916905581600073ffffffffffffffffffffffffffffffffffffffff168273ffffffffffffffffffffffffffffffffffffffff167fddf252ad1be2c89b69c2b068fc378daa952ba7f163c4a11628f55a4df523b3ef60405160405180910390a4611d1a81600084611915565b5050565b6000808273ffffffffffffffffffffffffffffffffffffffff163b119050919050565b508054611d4d9061255a565b6000825580601f10611d5f5750611d7e565b601f016020900490600052602060002090810190611d7d9190611d81565b5b50565b5b80821115611d9a576000816000905550600101611d82565b5090565b6000604051905090565b600080fd5b600080fd5b60007fffffffff0000000000000000000000000000000000000000000000000000000082169050919050565b611de781611db2565b8114611df257600080fd5b50565b600081359050611e0481611dde565b92915050565b600060208284031215611e2057611e1f611da8565b5b6000611e2e84828501611df5565b91505092915050565b60008115159050919050565b611e4c81611e37565b82525050565b6000602082019050611e676000830184611e43565b92915050565b600081519050919050565b600082825260208201905092915050565b60005b83811015611ea7578082015181840152602081019050611e8c565b83811115611eb6576000848401525b50505050565b6000601f19601f8301169050919050565b6000611ed882611e6d565b611ee28185611e78565b9350611ef2818560208601611e89565b611efb81611ebc565b840191505092915050565b60006020820190508181036000830152611f208184611ecd565b905092915050565b6000819050919050565b611f3b81611f28565b8114611f4657600080fd5b50565b600081359050611f5881611f32565b92915050565b600060208284031215611f7457611f73611da8565b5b6000611f8284828501611f49565b91505092915050565b600073ffffffffffffffffffffffffffffffffffffffff82169050919050565b6000611fb682611f8b565b9050919050565b611fc681611fab565b82525050565b6000602082019050611fe16000830184611fbd565b92915050565b611ff081611fab565b8114611ffb57600080fd5b50565b60008135905061200d81611fe7565b92915050565b6000806040838503121561202a57612029611da8565b5b600061203885828601611ffe565b925050602061204985828601611f49565b9150509250929050565b60008060006060848603121561206c5761206b611da8565b5b600061207a86828701611ffe565b935050602061208b86828701611ffe565b925050604061209c86828701611f49565b9150509250925092565b6000602082840312156120bc576120bb611da8565b5b60006120ca84828501611ffe565b91505092915050565b6120dc81611f28565b82525050565b60006020820190506120f760008301846120d3565b92915050565b600080fd5b600080fd5b7f4e487b7100000000000000000000000000000000000000000000000000000000600052604160045260246000fd5b61213f82611ebc565b810181811067ffffffffffffffff8211171561215e5761215d612107565b5b80604052505050565b6000612171611d9e565b905061217d8282612136565b919050565b600067ffffffffffffffff82111561219d5761219c612107565b5b6121a682611ebc565b9050602081019050919050565b82818337600083830152505050565b60006121d56121d084612182565b612167565b9050828152602081018484840111156121f1576121f0612102565b5b6121fc8482856121b3565b509392505050565b600082601f830112612219576122186120fd565b5b81356122298482602086016121c2565b91505092915050565b600080600080600060a0868803121561224e5761224d611da8565b5b600061225c88828901611ffe565b955050602086013567ffffffffffffffff81111561227d5761227c611dad565b5b61228988828901612204565b945050604086013567ffffffffffffffff8111156122aa576122a9611dad565b5b6122b688828901612204565b93505060606122c788828901611f49565b925050608086013567ffffffffffffffff8111156122e8576122e7611dad565b5b6122f488828901612204565b9150509295509295909350565b61230a81611e37565b811461231557600080fd5b50565b60008135905061232781612301565b92915050565b6000806040838503121561234457612343611da8565b5b600061235285828601611ffe565b925050602061236385828601612318565b9150509250929050565b600067ffffffffffffffff82111561238857612387612107565b5b61239182611ebc565b9050602081019050919050565b60006123b16123ac8461236d565b612167565b9050828152602081018484840111156123cd576123cc612102565b5b6123d88482856121b3565b509392505050565b600082601f8301126123f5576123f46120fd565b5b813561240584826020860161239e565b91505092915050565b6000806000806080858703121561242857612427611da8565b5b600061243687828801611ffe565b945050602061244787828801611ffe565b935050604061245887828801611f49565b925050606085013567ffffffffffffffff81111561247957612478611dad565b5b612485878288016123e0565b91505092959194509250565b600080604083850312156124a8576124a7611da8565b5b60006124b685828601611ffe565b92505060206124c785828601611ffe565b9150509250929050565b600060808201905081810360008301526124eb8187611ecd565b905081810360208301526124ff8186611ecd565b905061250e60408301856120d3565b81810360608301526125208184611ecd565b905095945050505050565b7f4e487b7100000000000000000000000000000000000000000000000000000000600052602260045260246000fd5b6000600282049050600182168061257257607f821691505b6020821081036125855761258461252b565b5b50919050565b7f4552433732313a20617070726f76616c20746f2063757272656e74206f776e6560008201527f7200000000000000000000000000000000000000000000000000000000000000602082015250565b60006125e7602183611e78565b91506125f28261258b565b604082019050919050565b60006020820190508181036000830152612616816125da565b9050919050565b7f4552433732313a20617070726f76652063616c6c6572206973206e6f7420746f60008201527f6b656e206f776e6572206e6f7220617070726f76656420666f7220616c6c0000602082015250565b6000612679603e83611e78565b91506126848261261d565b604082019050919050565b600060208201905081810360008301526126a88161266c565b9050919050565b7f4552433732313a2063616c6c6572206973206e6f7420746f6b656e206f776e6560008201527f72206e6f7220617070726f766564000000000000000000000000000000000000602082015250565b600061270b602e83611e78565b9150612716826126af565b604082019050919050565b6000602082019050818103600083015261273a816126fe565b9050919050565b7f4552433732313a20696e76616c696420746f6b656e2049440000000000000000600082015250565b6000612777601883611e78565b915061278282612741565b602082019050919050565b600060208201905081810360008301526127a68161276a565b9050919050565b7f4552433732313a2061646472657373207a65726f206973206e6f74206120766160008201527f6c6964206f776e65720000000000000000000000000000000000000000000000602082015250565b6000612809602983611e78565b9150612814826127ad565b604082019050919050565b60006020820190508181036000830152612838816127fc565b9050919050565b7f4e487b7100000000000000000000000000000000000000000000000000000000600052601160045260246000fd5b600061287982611f28565b91507fffffffffffffffffffffffffffffffffffffffffffffffffffffffffffffffff82036128ab576128aa61283f565b5b600182019050919050565b60008190508160005260206000209050919050565b60006020601f8301049050919050565b600082821b905092915050565b6000600883026129187fffffffffffffffffffffffffffffffffffffffffffffffffffffffffffffffff826128db565b61292286836128db565b95508019841693508086168417925050509392505050565b6000819050919050565b600061295f61295a61295584611f28565b61293a565b611f28565b9050919050565b6000819050919050565b61297983612944565b61298d61298582612966565b8484546128e8565b825550505050565b600090565b6129a2612995565b6129ad818484612970565b505050565b5b818110156129d1576129c660008261299a565b6001810190506129b3565b5050565b601f821115612a16576129e7816128b6565b6129f0846128cb565b810160208510156129ff578190505b612a13612a0b856128cb565b8301826129b2565b50505b505050565b600082821c905092915050565b6000612a3960001984600802612a1b565b1980831691505092915050565b6000612a528383612a28565b9150826002028217905092915050565b612a6b82611e6d565b67ffffffffffffffff811115612a8457612a83612107565b5b612a8e825461255a565b612a998282856129d5565b600060209050601f831160018114612acc5760008415612aba578287015190505b612ac48582612a46565b865550612b2c565b601f198416612ada866128b6565b60005b82811015612b0257848901518255600182019150602085019450602081019050612add565b86831015612b1f5784890151612b1b601f891682612a28565b8355505b6001600288020188555050505b505050505050565b600081905092915050565b6000612b4a82611e6d565b612b548185612b34565b9350612b64818560208601611e89565b80840191505092915050565b6000612b7c8285612b3f565b9150612b888284612b3f565b91508190509392505050565b7f4552433732313a207472616e736665722066726f6d20696e636f72726563742060008201527f6f776e6572000000000000000000000000000000000000000000000000000000602082015250565b6000612bf0602583611e78565b9150612bfb82612b94565b604082019050919050565b60006020820190508181036000830152612c1f81612be3565b9050919050565b7f4552433732313a207472616e7366657220746f20746865207a65726f2061646460008201527f7265737300000000000000000000000000000000000000000000000000000000602082015250565b6000612c82602483611e78565b9150612c8d82612c26565b604082019050919050565b60006020820190508181036000830152612cb181612c75565b9050919050565b6000612cc382611f28565b9150612cce83611f28565b925082821015612ce157612ce061283f565b5b828203905092915050565b6000612cf782611f28565b9150612d0283611f28565b9250827fffffffffffffffffffffffffffffffffffffffffffffffffffffffffffffffff03821115612d3757612d3661283f565b5b828201905092915050565b7f4552433732313a206d696e7420746f20746865207a65726f2061646472657373600082015250565b6000612d78602083611e78565b9150612d8382612d42565b602082019050919050565b60006020820190508181036000830152612da781612d6b565b9050919050565b7f4552433732313a20746f6b656e20616c7265616479206d696e74656400000000600082015250565b6000612de4601c83611e78565b9150612def82612dae565b602082019050919050565b60006020820190508181036000830152612e1381612dd7565b9050919050565b7f45524337323155524953746f726167653a2055524920736574206f66206e6f6e60008201527f6578697374656e7420746f6b656e000000000000000000000000000000000000602082015250565b6000612e76602e83611e78565b9150612e8182612e1a565b604082019050919050565b60006020820190508181036000830152612ea581612e69565b9050919050565b7f4552433732313a20617070726f766520746f2063616c6c657200000000000000600082015250565b6000612ee2601983611e78565b9150612eed82612eac565b602082019050919050565b60006020820190508181036000830152612f1181612ed5565b9050919050565b7f4552433732313a207472616e7366657220746f206e6f6e20455243373231526560008201527f63656976657220696d706c656d656e7465720000000000000000000000000000602082015250565b6000612f74603283611e78565b9150612f7f82612f18565b604082019050919050565b60006020820190508181036000830152612fa381612f67565b9050919050565b600081519050919050565b600082825260208201905092915050565b6000612fd182612faa565b612fdb8185612fb5565b9350612feb818560208601611e89565b612ff481611ebc565b840191505092915050565b60006080820190506130146000830187611fbd565b6130216020830186611fbd565b61302e60408301856120d3565b81810360608301526130408184612fc6565b905095945050505050565b60008151905061305a81611dde565b92915050565b60006020828403121561307657613075611da8565b5b60006130848482850161304b565b91505092915050565b7f4e487b7100000000000000000000000000000000000000000000000000000000600052601260045260246000fd5b60006130c782611f28565b91506130d283611f28565b9250826130e2576130e161308d565b5b828204905092915050565b60006130f882611f28565b915061310383611f28565b9250826131135761311261308d565b5b828206905092915050565b7f4e487b7100000000000000000000000000000000000000000000000000000000600052603260045260246000fdfe68747470733a2f2f6672616e63652d657374696d6174696f6e732e66722f77702d636f6e74656e742f75706c6f6164732f323031392f30362f7361632d6368616e656c2d637569722d6d6174656c617373652d323939783234372e6a7067a2646970667358221220d07edb169fa7da09139d0cf6f29f0d3438d7561db97aa65c390e9aa664b3618364736f6c634300080f0033",
  "immutableReferences": {},
  "source": "pragma solidity >=0.6.0 <0.9.0;\nimport \"@openzeppelin/contracts/token/ERC721/extensions/ERC721URIStorage.sol\";\n//import \"@openzeppelin/contracts/utils/Counters.sol\";\n//import \"@openzeppelin/contracts/access/Ownable.sol\";\n//import '@openzeppelin/contracts/math/SafeMath.sol';\n\n\ncontract SacNFT is ERC721URIStorage {\n    uint256 private _tokenIds=0;\n    mapping (address => bool) public minters;\n    mapping (uint256 => Sac) public sacs;\n    // owner of the contract = Crystalchain\n    address owner;\n\n    struct Sac{\n        string modele;\n        string couleur;\n        uint256 taille;\n        string numeroserie;\n    }\n\n    constructor() ERC721(\"SacNFT\", \"SNFT\")  {\n        owner = msg.sender;\n    }\n    //modifier checks that the caller of the function is the owner\n    modifier onlyOwner() {\n         require(msg.sender == owner, 'Not Owner');\n         _;\n    }\n\n    modifier isMinter(){\n        require(minters[msg.sender]);\n        _;\n    }\n\n    function registerMinter(address minter) public {\n        require(msg.sender==owner);\n        minters[minter]=true;\n    }\n\n    function generateSac( address minter, string memory modele, string memory couleur, uint256 taille, string memory numeroserie) isMinter public returns(uint256){\n        _tokenIds++;\n        uint256 newItemId = _tokenIds;\n        _mint(minter, newItemId);\n        sacs[newItemId]=Sac(modele,couleur,taille,numeroserie);\n        _setTokenURI(newItemId, \"https://france-estimations.fr/wp-content/uploads/2019/06/sac-chanel-cuir-matelasse-299x247.jpg\");\n        return newItemId;\n    }\n    function destroySac(uint256 tokenId) public {\n        require(msg.sender==ownerOf(tokenId)); \n       _burn(tokenId);\n    }           \n}",
  "sourcePath": "/home/plq/Documents/Deploy_Smart_Contract/contracts/SacNFT.sol",
  "compiler": {
    "name": "solc",
    "version": "0.8.15+commit.e14f2714.Emscripten.clang"
  },
  "schemaVersion": "3.4.8",
  "updatedAt": "2022-07-13T12:39:15.384Z",
  "networkType": "ethereum",
  "devdoc": {
    "kind": "dev",
    "methods": {
      "approve(address,uint256)": {
        "details": "See {IERC721-approve}."
      },
      "balanceOf(address)": {
        "details": "See {IERC721-balanceOf}."
      },
      "getApproved(uint256)": {
        "details": "See {IERC721-getApproved}."
      },
      "isApprovedForAll(address,address)": {
        "details": "See {IERC721-isApprovedForAll}."
      },
      "name()": {
        "details": "See {IERC721Metadata-name}."
      },
      "ownerOf(uint256)": {
        "details": "See {IERC721-ownerOf}."
      },
      "safeTransferFrom(address,address,uint256)": {
        "details": "See {IERC721-safeTransferFrom}."
      },
      "safeTransferFrom(address,address,uint256,bytes)": {
        "details": "See {IERC721-safeTransferFrom}."
      },
      "setApprovalForAll(address,bool)": {
        "details": "See {IERC721-setApprovalForAll}."
      },
      "supportsInterface(bytes4)": {
        "details": "See {IERC165-supportsInterface}."
      },
      "symbol()": {
        "details": "See {IERC721Metadata-symbol}."
      },
      "tokenURI(uint256)": {
        "details": "See {IERC721Metadata-tokenURI}."
      },
      "transferFrom(address,address,uint256)": {
        "details": "See {IERC721-transferFrom}."
      }
    },
    "version": 1
  },
  "userdoc": {
    "kind": "user",
    "methods": {},
    "version": 1
  }
}